:020000040800F2
:10000000C0060020650200085D16000845150008BE
:10001000591600085D0400083919000800000000A6
:10002000000000000000000000000000D1160008E1
:100030006104000800000000CD1600082917000820
:100040007F0200087F0200087F0200087F0200088C
:100050007F0200087F0200087F0200087F0200087C
:100060007F0200087F0200087F0200087F0200086C
:100070007F0200087F0200087F0200087F0200085C
:100080007F0200087F0200087F02000800000000D5
:100090000000000000000000000000007F020008D7
:1000A0007F0200087F0200087F0200087F0200082C
:1000B0007F0200087F0200087F0200087F0200081C
:1000C0007F0200087F0200087F0200087F0200080C
:1000D0007F0200087F0200087F0200080000000085
:1000E0007F0200087F0200087F0200080000000075
:1000F0000000000000000000000000007F02000877
:10010000000000007F0200087F0200087F02000854
:1001100000000000000000000000000000000000DF
:100120007F0200087F0200087F0200087F020008AB
:100130007F02000800000000000000000000000036
:100140000000000000000000000000007F02000826
:100150007F0200087F0200087F0200087F0200087B
:100160007F0200087F02000800000000000000007D
:10017000000000000000000000000000000000007F
:10018000000000007F0200080000000000000000E6
:100190007F0200087F02000800F002F800F052F829
:1001A00014A696E8000CB244B344DA4501D100F03D
:1001B00049F8BAE80F000FA696E83000A5EB040551
:1001C00004EB0607AAEB0704A7F101074FEA151590
:1001D0004FEA3414A4F10104AC4201D300F032F828
:1001E00013F0010F18BFFB1A43F0010300F001F8F0
:1001F000DBE7184780180000A0180000103A24BF61
:1002000078C878C1FAD8520724BF30C830C144BF7B
:1002100004680C6070470000704700000023002451
:1002200000250026103A28BF78C1FBD8520728BF06
:1002300030C148BF0B6070471FB501F001FC1FBD06
:1002400010B510BD00F0D0F81146FFF7F5FF01F032
:10025000BDFB00F0EEF803B4FFF7F2FF03BC00F0C3
:10026000F5F800000948804709480047FEE7FEE727
:10027000FEE7FEE7FEE7FEE7FEE7FEE7FEE7FEE756
:1002800004480549054A064B70470000E917000875
:1002900099010008C0000020C0060020C002002014
:1002A000C002002053EA020C00F069802DE9F04BF7
:1002B0004FF00006002B1FBFB3FA83F503FA05F4D5
:1002C00024FA05F65E4012BF1643B2FA82F502FA2E
:1002D00005F4C5F120051EBF22FA05FC44EA0C0412
:1002E000203556EA044C4FEA144418BF641C4FF002
:1002F00000084FF00009904271EB030C39D300293C
:1003000019BFB1FA81F701FA07F6B0FA80F700FADF
:1003100007F6C7F120071EBF20FA07FC46EA0C06C5
:100320002037B6FBF4FCA7EB0507103F07F01F0BC7
:10033000CBF120062CFA06F60CFA0BFB44BFB346B1
:100340000026202FA4BF5E464FF0000B5BEA060C90
:1003500008BF4FF0010B19EB0B0948EB0608ABFB8C
:10036000027C06FB02CC0BFB03CCC01B71EB0C0127
:10037000C1E70B46024641464846BDE8F08B13B53F
:10038000084318BF4FF0FF300146AFF30080BDE8CF
:100390001C4070474FF0000200B513469446964645
:1003A000203922BFA0E80C50A0E80C50B1F1200188
:1003B000BFF4F7AF090728BFA0E80C5048BF0CC036
:1003C0005DF804EB890028BF40F8042B08BF704794
:1003D00048BF20F8022B11F0804F18BF00F8012B06
:1003E0007047704770477047754600F02BF8AE466F
:1003F00005006946534620F00700854618B020B531
:10040000FFF73EFFBDE820404FF000064FF0000729
:100410004FF000084FF0000BAC46ACE8C009ACE868
:10042000C009ACE8C009ACE8C00921F007018D465D
:10043000704710B50446AFF300802046BDE8104079
:10044000FFF709BF0048704710000020014918203D
:10045000ABBEFEE72600020070470000FFE7FEE7A4
:100460007047000072B6FFE7FEE7000080B584B079
:10047000039000F0E7F90290039801900198013091
:1004800048B1FFE740F20400C2F200000178019891
:1004900008440190FFE7FFE700F0D4F90299401A01
:1004A0000199884201D2FFE7F6E704B080BD000061
:1004B0008BB00A9009910020079006900590089053
:1004C000FFE708980F2800F2A281FFE708990120B2
:1004D0008840079009980068079908400690069898
:1004E0000799884240F08E81FFE70998406800F044
:1004F0000300012807D0FFE70998406800F00300D7
:1005000002282FD1FFE70A988068059008984100DB
:10051000032000FA01F10598884305900998C06806
:100520000899490000FA01F10598084305900598DB
:100530000A9988600A98406805900899012000FA95
:1005400001F105988843059009984068C0F30010B0
:10055000089900FA01F105980843059005980A9951
:100560004860FFE70998406800F00300032818D0AE
:10057000FFE70A98C068059008984100032000FA38
:1005800001F1059888430590099880680899490009
:1005900000FA01F105980843059005980A99C8608A
:1005A000FFE70998406800F00300022826D1FFE722
:1005B0000A9808996FF0030202EA51010844006AA0
:1005C0000590089800F0070081000F2000FA01F163
:1005D00005988843059009980069089901F007017A
:1005E000890000FA01F105980843059005980A99D9
:1005F000089B02EA530211440862FFE70A98006868
:10060000059008984100032000FA01F105988843FD
:1006100005900998406800F003000899490000FA25
:1006200001F105980843059005980A990860099812
:1006300080798007002800F0E480FFE7FFE70020D2
:10064000049043F64400C4F20200016841F4804182
:100650000160006800F4804004900498FFE7089867
:1006600020F0030043F60801C4F201014058059050
:10067000089800F0030081000F2000FA01F10598AE
:10068000884305900A980021C4F20201884203D1F0
:10069000FFE70020039034E00A9840F20041C4F2E2
:1006A0000201884203D1FFE70120029026E00A9868
:1006B00040F60001C4F20201884203D1FFE70220A4
:1006C000019018E00A9840F60041C4F20201884205
:1006D00003D1FFE7032000900AE00A9941F20002EB
:1006E000C4F202020720914208BF04200090FFE7F5
:1006F00000980190FFE701980290FFE702980390AD
:10070000FFE70398C0B2089901F00301890000FADD
:1007100001F10598084305900598089921F0030117
:1007200043F60802C4F20102885043F60840C4F2BE
:10073000010000680590069905988843059009987E
:100740008079C006002805D5FFE70699059808437B
:100750000590FFE7059843F60841C4F201010860DF
:1007600043F60C40C4F20100006805900699059814
:1007700088430590099880798006002805D5FFE711
:100780000699059808430590FFE7059843F60C4144
:10079000C4F20101086043F60440C4F2010000689D
:1007A00005900699059888430590099880798007F7
:1007B000002805D5FFE70699059808430590FFE74F
:1007C000059843F60441C4F20101086043F6004075
:1007D000C4F20100006805900699059888430590C9
:1007E00009988079C00728B1FFE706990598084362
:1007F0000590FFE7059843F60041C4F20101086047
:10080000FFE7FFE7FFE708980130089059E60BB0D3
:100810007047000082B00190ADF802108DF8012001
:100820009DF8010028B1FFE7BDF802000199886139
:1008300005E0BDF80200000401998861FFE702B0FD
:100840007047000040F2B800C2F200000068704734
:1008500040F20400C2F20000027840F2B801C2F295
:1008600000010868104408607047000080B543F636
:100870000041C4F20201086840F400700860086892
:1008800040F480600860086840F4807008600320CD
:1008900000F080F80F2000F005F800F03BF8002091
:1008A00080BD000080B582B0009040F20000C2F22E
:1008B0000000006840F20401C2F200010A784FF41F
:1008C0007A71B1FBF2F1B0FBF1F000F09BFD20B1C9
:1008D000FFE701208DF8070018E000980F280DD8D9
:1008E000FFE700994FF0FF30002200F039F8009840
:1008F00040F20801C2F20001086003E001208DF817
:10090000070003E000208DF80700FFE79DF80700CF
:1009100002B080BD82B0FFE70020019043F64400A2
:10092000C4F20200016841F480410160006800F4F3
:10093000804001900198FFE7FFE70020009043F618
:100940004000C4F20200016841F08051016000687B
:1009500000F0805000900098FFE702B07047000060
:1009600080B586B08DF817000491039200200290A4
:1009700000F0E4FF02909DF917000190029804999D
:10098000039A00F06DFE0146019800F0DFFF06B00B
:1009900080BD000080B582B00190019800F0F8FFA2
:1009A00002B080BD80B584B002900191029820B958
:1009B000FFE701208DF80F0021E1019843F6004187
:1009C000C4F20201096801F00701884212D9FFE769
:1009D000019943F60040C4F202000170006800F083
:1009E00007000199884204D0FFE701208DF80F002D
:1009F00005E1FFE702980078800700282AD5FFE785
:100A0000029800784007002809D5FFE743F608015F
:100A1000C4F20201086840F4E0500860FFE7029861
:100A200000780007002809D5FFE743F60801C4F263
:100A30000201086840F460400860FFE743F60801DF
:100A4000C4F20201086820F0F000029A9268104394
:100A50000860FFE702980078C00700286ED0FFE723
:100A600002984068012811D1FFE743F60000C4F264
:100A70000200006800F400310020B0EB514F04D1B7
:100A8000FFE701208DF80F00B9E02CE002984068E4
:100A9000022805D0FFE702984068032811D1FFE73C
:100AA00043F60000C4F20200006800F0007100206C
:100AB000B0EB516F04D1FFE701208DF80F009EE0ED
:100AC00010E043F60000C4F20200006800F00201EA
:100AD0000020B0EB510F04D1FFE701208DF80F008B
:100AE0008DE0FFE7FFE743F60801C4F20201086862
:100AF00020F00300029A526810430860FFF7A2FE3C
:100B00000090FFE743F60800C4F20200006800F01E
:100B10000C0002994968B0EB810F0ED0FFE7FFF798
:100B200091FE0099401A41F28931884204D3FFE7CF
:100B300003208DF80F0062E0E4E7FFE7019843F639
:100B40000041C4F20201096801F00701884212D293
:100B5000FFE7019943F60040C4F20200017000680B
:100B600000F007000199884204D0FFE701208DF8CA
:100B70000F0044E0FFE702980078400700280CD5FA
:100B8000FFE743F60801C4F20201086820F4E050D0
:100B9000029AD26810430860FFE7029800780007C5
:100BA00000280DD5FFE743F60801C4F202010868EA
:100BB00020F46040029A126940EAC2000860FFE730
:100BC00000F04CF843F60801C4F202010968C9B20A
:100BD0000A0941F65A21C0F60001895CC84040F27A
:100BE0000001C2F20001086040F20800C2F20000F9
:100BF0000068FFF757FE00208DF80F00FFE79DF813
:100C00000F0004B080BD000040F20000C2F20000FE
:100C10000068704780B5FFF7F7FF43F60801C4F29C
:100C200002010968C1F3822241F66A21C0F600017F
:100C3000895CC84080BD000080B5FFF7E5FF43F642
:100C40000801C4F20201096889B24A0B41F66A211F
:100C5000C0F60001895CC84080BD000080B586B048
:100C60000020059004900390029043F60800C4F21F
:100C70000200006800F00C000146019140B1FFE75E
:100C8000019804280AD0FFE7019808280CD04FE00B
:100C900042F20040C0F2F40002904FE042F2004005
:100CA000C0F2F400029049E043F60400C4F20200EE
:100CB000016801F03F01059100684002002813D54A
:100CC000FFE743F60400C4F202000068C0F3881096
:100CD00042F20041C0F2F401A0FB0101059A002399
:100CE000FFF7E0FA049012E043F60400C4F20200B9
:100CF0000068C0F3881042F20041C0F2F401A0FB8A
:100D00000101059A0023FFF7CDFA0490FFE743F6AF
:100D10000400C4F20200006800F44031022000EB3D
:100D2000D130039004980399B0FBF1F0029005E0F4
:100D300042F20040C0F2F4000290FFE7029806B0D1
:100D400080BD000080B586B00490049820B9FFE70C
:100D500001208DF8170050E304980078C0070028A0
:100D600000F0A580FFE743F60800C4F20200006827
:100D700000F00C00042813D0FFE743F60800C4F28B
:100D80000200006800F00C0008281ED1FFE743F6BF
:100D90000400C4F2020000684002002815D5FFE7F5
:100DA00043F60000C4F20200006800F400310020A5
:100DB000B0EB514F08D0FFE70498406820B9FFE737
:100DC00001208DF8170018E370E0FFE704984068F1
:100DD000B0F5803F09D1FFE743F60001C4F20201FC
:100DE000086840F48030086020E004984068B0F55E
:100DF000A02F0DD1FFE743F60001C4F202010868FD
:100E000040F480200860086840F4803008600CE0FE
:100E100043F60001C4F20201086820F48030086043
:100E2000086820F480200860FFE7FFE7FFE70498E8
:100E30004068E8B1FFE7FFF705FD0390FFE743F6E1
:100E40000000C4F20200006800F400310020B0EBA2
:100E5000514F0CD1FFE7FFF7F5FC0399401A6528C5
:100E600004D3FFE703208DF81700C6E2E7E71CE094
:100E7000FFF7E8FC0390FFE743F60000C4F202002E
:100E8000006800F400310020B0EB514F0CD0FFE7B8
:100E9000FFF7D8FC0399401A652804D3FFE7032025
:100EA0008DF81700A9E2E7E7FFE7FFE7FFE70498FF
:100EB00000788007002840F19680FFE743F608009D
:100EC000C4F20200006810F00C0F13D0FFE743F6E5
:100ED0000800C4F20200006800F00C0008282CD1C1
:100EE000FFE743F60400C4F2020000684002002855
:100EF00023D4FFE743F60000C4F20200006800F0CC
:100F000002010020B0EB510F09D0FFE70498C06840
:100F1000012804D0FFE701208DF817006DE243F6A9
:100F20000001C4F20201086820F0F800049A126976
:100F300040EAC2000860FFE754E00498C06870B35C
:100F4000FFE70021C4F2472101200860FFF77AFC87
:100F50000390FFE743F60000C4F20200006800F0CF
:100F600002010020B0EB510F0CD1FFE7FFF76AFC44
:100F70000399401A032804D3FFE703208DF81700D4
:100F80003BE2E7E743F60001C4F20201086820F003
:100F9000F800049A126940EAC200086021E00021CA
:100FA000C4F2472100200860FFF74CFC0390FFE7E4
:100FB00043F60000C4F20200006800F002010020C5
:100FC000B0EB510F0CD0FFE7FFF73CFC0399401A40
:100FD000032804D3FFE703208DF817000DE2E7E7AD
:100FE000FFE7FFE7FFE704980078000700284BD5EC
:100FF000FFE70498406918B3FFE740F68061C4F248
:10100000472101200860FFF71DFC0390FFE743F62E
:101010007400C4F20200006800F002010020B0EB8E
:10102000510F0CD1FFE7FFF70DFC0399401A03287D
:1010300004D3FFE703208DF81700DEE1E7E722E0A5
:1010400040F68061C4F2472100200860FFF7FAFBF8
:101050000390FFE743F67400C4F20200006800F05A
:1010600002010020B0EB510F0CD0FFE7FFF7EAFBC5
:101070000399401A032804D3FFE703208DF81700D3
:10108000BBE1E7E7FFE7FFE70498007840070028A7
:1010900040F1CE80FFE700208DF8070043F64000C6
:1010A000C4F202000068C000002815D4FFE7FFE783
:1010B0000020009043F64000C4F20200016841F0B5
:1010C00080510160006800F0805000900098FFE7B8
:1010D00001208DF80700FFE747F20000C4F200008E
:1010E0000068C005002822D4FFE747F20001C4F2DF
:1010F0000001086840F480700860FFF7A3FB0390CC
:10110000FFE747F20000C4F200000068C0050028B5
:101110000CD4FFE7FFF796FB0399401A032804D38A
:10112000FFE703208DF8170067E1EAE7FFE7FFE735
:1011300004988068012809D1FFE743F67001C4F2E2
:101140000201086840F0010008601FE00498806810
:1011500005280DD1FFE743F67001C4F202010868CB
:1011600040F004000860086840F0010008600CE0EE
:1011700043F67001C4F20201086820F00100086023
:10118000086820F004000860FFE7FFE7FFE7049825
:101190008068F8B1FFE7FFF755FB0390FFE743F6E0
:1011A0007000C4F20200006800F002010020B0EB01
:1011B000510F0ED1FFE7FFF745FB0399401A41F2AB
:1011C0008931884204D3FFE703208DF8170014E12A
:1011D000E5E71EE0FFF736FB0390FFE743F67000FC
:1011E000C4F20200006800F002010020B0EB510FD1
:1011F0000ED0FFE7FFF726FB0399401A41F2893131
:10120000884204D3FFE703208DF81700F5E0E5E7F7
:10121000FFE79DF80700012809D1FFE743F64001E9
:10122000C4F20201086820F080500860FFE7FFE781
:1012300004988069002800F0DC80FFE743F608008E
:10124000C4F20200006800F00C00082800F085805D
:10125000FFE70498806902285CD1FFE76021C4F2AF
:10126000472100200860FFF7EDFA0390FFE743F6FF
:101270000000C4F20200006800F000710020B0EB32
:10128000516F0CD0FFE7FFF7DDFA0399401A0328EE
:1012900004D3FFE703208DF81700AEE0E7E70499D9
:1012A000C869D1F820C04B6A8A6A40EA0C0040EA5B
:1012B0008310D2034FF6FF739A43A2F58032104396
:1012C000C96A40EA016043F60401C4F20201086001
:1012D0006021C4F2472101200860FFF7B3FA0390B0
:1012E000FFE743F60000C4F20200006800F000715E
:1012F0000020B0EB516F0CD1FFE7FFF7A3FA039981
:10130000401A032804D3FFE703208DF8170074E088
:10131000E7E721E06021C4F2472100200860FFF7E1
:1013200091FA0390FFE743F60000C4F20200006860
:1013300000F000710020B0EB516F0CD0FFE7FFF719
:1013400081FA0399401A032804D3FFE703208DF89C
:10135000170052E0E7E7FFE74AE0049880690128B8
:1013600004D1FFE701208DF8170046E043F60400A2
:10137000C4F202000068029004988069012831D00C
:10138000FFE7029800F480000499C969884229D1D6
:10139000FFE7029800F03F000499096A884221D1D2
:1013A000FFE7029847F6C07108400499496AB0EB1C
:1013B000811F17D1FFE7029800F440300499896A31
:1013C000C9034FF6FF729143A1F58031884209D1DC
:1013D000FFE7029800F070600499C96AB0EB016FF2
:1013E00004D0FFE701208DF8170006E0FFE7FFE7D4
:1013F000FFE700208DF81700FFE79DF8170006B003
:1014000080BD000080B582B00190019800F062F9C3
:1014100002B080BD80B582B00090009820B9FFE78F
:1014200001208DF8070040E00098806908B1FFE7CF
:1014300000E0FFE7009890F8410040B9FFE700990D
:10144000002081F84000009800F034F8FFE7009990
:10145000242081F8410000980168C86820F40050F9
:10146000C860009800F0CAF900980168086920F483
:101470009040086100980168486920F02A0048619E
:1014800000980168C86840F40050C86000990020C6
:101490004864009A202182F84110009A82F8421094
:1014A000009948638DF80700FFE79DF8070002B038
:1014B00080BD000080B588B00790002006900590A0
:1014C0000490039002900798006844F20041C4F22F
:1014D0000001884233D1FFE7FFE70020019043F687
:1014E0004000C4F20200016841F40031016000686C
:1014F00000F4003001900198FFE7FFE70020009022
:1015000043F63000C4F20200016841F001010160BD
:10151000006800F0010000900098FFE70F200290A3
:1015200002200390002004900320059007200690DD
:101530000020C4F2020002A9FEF7BAFFFFE708B0DC
:1015400080BD0000FFE7FEE780B58CB000200B9067
:101550000A90099008900790FFE70020069043F654
:101560003000C4F20200016841F00401016000682B
:1015700000F0040006900698FFE7FFE700200590C2
:1015800043F63000C4F20200016841F080010160BE
:10159000006800F0800005900598FFE7FFE7002055
:1015A000049043F63000C4F20200016841F00101EA
:1015B0000160006800F0010004900498FFE7FFE775
:1015C0000020039043F63000C4F20200016841F0AD
:1015D00008010160006800F0080003900398FFE72D
:1015E00040F60040C4F2020002904FF440510091D6
:1015F00000220192FFF70EF9009A019902980792D2
:101600000122089209910A9107A9FEF751FF0CB037
:1016100080BD000080B582B040F27000C2F20000D0
:10162000019044F20041C4F2000101604FF4E13145
:10163000416000218160C16001610C2242614FF470
:1016400040728261C161FFF7E5FE18B1FFE7FEF766
:1016500009FFFFE702B080BDFFE7FEE7FFE7FEE717
:1016600088B0079006910592079800F00700049053
:101670000498C0F10700052803D3FFE70420019078
:1016800004E00498C0F107000190FFE7019803907F
:1016900004980430062803D8FFE70020009003E0F8
:1016A000049803380090FFE7009802900698039989
:1016B000012202FA01F101390840029B9840059984
:1016C0009A40013A1140084308B070477047000043
:1016D0007047000080B582B0009000980138B0F1EA
:1016E000807F03D3FFE70120019019E000980138C3
:1016F0004EF21401CEF2000108604FF0FF300F21CE
:1017000000F024F94EF21801CEF20001002008602A
:101710004EF21002CEF20002072111600190FFE7A5
:10172000019802B080BD000080B5FFF791F880BD40
:1017300080B594B008A83021FEF72CFE0020079059
:101740000690059004900390FFE70020029043F676
:101750004000C4F20200016841F08051016000685D
:1017600000F0805002900298FFE7FFE70020019010
:1017700047F20000C4F20000016841F440410160FA
:10178000006800F4404001900198FFE701200890B4
:101790004FF48030099002200E904FF480010F9199
:1017A000082110914821119112900420139008A84B
:1017B000FFF7C8FA18B1FFE7FEF754FEFFE70F2066
:1017C000039002210491002005904FF4805206926C
:1017D000079003A8FFF7E6F818B1FFE7FEF742FE0F
:1017E000FFE714B080BD00004EF68851CEF2000134
:1017F000086840F4700008607047000080B586B04B
:10180000059005980068006920F44050059A116819
:10181000D26810430861059988680B694A69C969EB
:10182000184310430843049005980068C06849F2C3
:101830000C6188430499084305990968C8600598B4
:101840000068406920F44070059A1168926910435D
:1018500048610598006841F20001C4F20101884224
:1018600009D0FFE70598006841F20041C4F2010188
:10187000884204D1FFE7FFF7DFF9039003E0FFF7A9
:10188000C9F90390FFE70598C069B0F5004F29D169
:10189000FFE703981921A0FB0101059A1368029341
:1018A00053685A00DB0FFEF7FDFC0299864648F2AA
:1018B0001F53C5F2EB13AEFB0320420910014FF09A
:1018C000640C02FB1CEC322202EBCC02A2FB0332C2
:1018D000F82303EA521300EB4300C2F34212104410
:1018E000886026E003981921A0FB0101059A13687E
:1018F000019353689A009B0FFEF7D4FC019984462C
:1019000048F21F52C5F2EB12ACFB023043096420CF
:1019100003FB10CC322000EB0C10A0FB0202F020E5
:1019200000EA521000EB0310C2F343121044886027
:10193000FFE706B080BD0000FFE7FEE74EF60C5063
:10194000CEF200000068C0F30220704782B08DF82C
:10195000070000919DF9070000280AD4FFE70098CE
:1019600000019DF907104EF20042CEF200028854A9
:101970000BE0009800019DF8071001F00F014EF6F2
:101980001452CEF200028854FFE702B07047000004
:1019900083B00290029800F0070000904EF60C51C0
:1019A000CEF200010868019001984FF6FF02104046
:1019B00001900198009A40EA02200022C0F2FA52F7
:1019C000104301900198086003B0704780B588B05B
:1019D00000200790FEF74AFFFFF7AAFEFFF7B4FDCD
:1019E000FFF718FEFFE740F60040C4F20200039044
:1019F0004FF48051019101220292FEF70BFF4FF448
:101A0000FA700690FEF732FD0199039800220592C4
:101A1000FEF700FF0698FEF729FD029A03984FF49F
:101A200000510491FEF7F6FE0698FEF71FFD03989D
:101A30000499059AFEF7EEFE0698FEF717FDD2E729
:101A4000F1EE100A4FF6FF71C0F2C03120EA01003A
:101A500040F04070E1EE100A704700000000000006
:101A6000000001020304060708090000000001024B
:101A700003040000981A0008000000201000000075
:101A8000FC010008A81A000810000020B0060000A1
:101A90001C020008000000000024F4000100000007
:081AA00010000000000000002E
:040000050800019955
:00000001FF
