:020000040800F2
:1000000008070020650200089D160008E914000892
:10001000991600085D04000831190008000000006E
:10002000000000000000000000000000A51600080D
:100030006104000800000000A1160008A9160008CD
:100040007F0200087F0200087F0200087F0200088C
:100050007F0200087F0200087F0200087F0200087C
:100060007F0200087F0200087F0200087F0200086C
:100070007F0200087F0200087F0200087F0200085C
:100080007F0200087F0200087F02000800000000D5
:100090000000000000000000000000007F020008D7
:1000A0007F0200087F0200087F0200087F0200082C
:1000B0007F0200087F0200087F0200087F0200081C
:1000C0007F0200087F0200087F0200087F0200080C
:1000D0007F0200087F0200087F0200080000000085
:1000E0007F0200087F0200087F0200080000000075
:1000F0000000000000000000000000007F02000877
:10010000000000007F0200087F0200087F02000854
:1001100000000000000000000000000000000000DF
:100120007F0200087F0200087F0200087F020008AB
:100130007F02000800000000000000000000000036
:100140000000000000000000000000007F02000826
:100150007F0200087F0200087F0200087F0200087B
:100160007F0200087F02000800000000000000007D
:10017000000000000000000000000000000000007F
:10018000000000007F0200080000000000000000E6
:100190007F0200087F02000800F002F800F052F829
:1001A00014A696E8000CB244B344DA4501D100F03D
:1001B00049F8BAE80F000FA696E83000A5EB040551
:1001C00004EB0607AAEB0704A7F101074FEA151590
:1001D0004FEA3414A4F10104AC4201D300F032F828
:1001E00013F0010F18BFFB1A43F0010300F001F8F0
:1001F000DBE718472818000048180000103A24BF11
:1002000078C878C1FAD8520724BF30C830C144BF7B
:1002100004680C6070470000704700000023002451
:1002200000250026103A28BF78C1FBD8520728BF06
:1002300030C148BF0B6070471FB501F0D5FB1FBD33
:1002400010B510BD00F0D0F81146FFF7F5FF01F032
:1002500071FB00F0EEF803B4FFF7F2FF03BC00F00F
:10026000F5F800000948804709480047FEE7FEE727
:10027000FEE7FEE7FEE7FEE7FEE7FEE7FEE7FEE756
:1002800004480549054A064B70470000511700080D
:100290009901000808010020080700200803002039
:1002A0000803002053EA020C00F069802DE9F04BAE
:1002B0004FF00006002B1FBFB3FA83F503FA05F4D5
:1002C00024FA05F65E4012BF1643B2FA82F502FA2E
:1002D00005F4C5F120051EBF22FA05FC44EA0C0412
:1002E000203556EA044C4FEA144418BF641C4FF002
:1002F00000084FF00009904271EB030C39D300293C
:1003000019BFB1FA81F701FA07F6B0FA80F700FADF
:1003100007F6C7F120071EBF20FA07FC46EA0C06C5
:100320002037B6FBF4FCA7EB0507103F07F01F0BC7
:10033000CBF120062CFA06F60CFA0BFB44BFB346B1
:100340000026202FA4BF5E464FF0000B5BEA060C90
:1003500008BF4FF0010B19EB0B0948EB0608ABFB8C
:10036000027C06FB02CC0BFB03CCC01B71EB0C0127
:10037000C1E70B46024641464846BDE8F08B13B53F
:10038000084318BF4FF0FF300146AFF30080BDE8CF
:100390001C4070474FF0000200B513469446964645
:1003A000203922BFA0E80C50A0E80C50B1F1200188
:1003B000BFF4F7AF090728BFA0E80C5048BF0CC036
:1003C0005DF804EB890028BF40F8042B08BF704794
:1003D00048BF20F8022B11F0804F18BF00F8012B06
:1003E0007047704770477047754600F02BF8AE466F
:1003F00005006946534620F00700854618B020B531
:10040000FFF73EFFBDE820404FF000064FF0000729
:100410004FF000084FF0000BAC46ACE8C009ACE868
:10042000C009ACE8C009ACE8C00921F007018D465D
:10043000704710B50446AFF300802046BDE8104079
:10044000FFF709BF0048704710000020014918203D
:10045000ABBEFEE72600020070470000FEE700008A
:100460007047000072B600BFFEE70000B0B504465A
:1004700000F0DAF8054640F20400C2F2000000780D
:10048000611C18BF044400BF00F0CEF8401BA0421E
:10049000FAD3B0BD2DE9F04F83B000F1200200F196
:1004A0003E4741F20005009207F1FF77C4F20205D2
:1004B00007224FEAB726A84208BF0422042E38BFFD
:1004C0004FEAB72200274FF0000A4FF000080192D0
:1004D0000AE000BF08F101080AF1020AB8F1100FA2
:1004E00007F1040700F09D800D68012202FA08FC64
:1004F00015EA0C09EED04D68032205F0030BABF1B1
:100500000106012E02FA0AFE10D88668CC6826EA97
:100510000E0604FA0AF4344384604468C5F30015F7
:1005200024EA0C0605FA08F52E434660BBF1030FDA
:100530001BD0C6688D6826EA0E0605FA0AF52E431A
:10054000BBF1020FC66010D16FF00302009D02EAFA
:10055000580655F806C007F01C040F220B69A2408C
:100560002CEA0202A3401A43AA5102684B6822EA0D
:100570000E0203F0030606FA0AF6324313F4403F74
:100580000260A7D0002243F644030292C4F20203A1
:100590001A6843F6004442F480421A601A68C4F2B2
:1005A000010402F480420292029A28F003024FF6FC
:1005B000084C2244CFF6FF7C52F80C3007F00C06B2
:1005C0000F25B540AB43019D05FA06F6334342F8CB
:1005D0000C30A2684B6842EA090643F60C4CDD0277
:1005E00058BF22EA0906A660C4F2010CDCF800201C
:1005F0009D0242EA090658BF22EA0906CCF80060CB
:1006000062689D0342EA090658BF22EA090666604D
:100610002268DB0342EA090658BF22EA090626607F
:1006200058E703B0BDE8F08F40F20010C2F20000BE
:100630000068704740F2040040F20011C2F200006E
:10064000C2F2000100780A68104408607047000098
:1006500080B543F60040C4F20200016841F4007125
:100660000160016841F480610160016841F48071BA
:100670000160032000F078F80F2000F005F800F08A
:100680002BF8002080BD0000B0B540F20402C2F299
:10069000000240F200011278C2F200014FF47A73B6
:1006A0000968B3FBF2F20446B1FBF2F1084600F030
:1006B00027FB0F2C4FF001050CD858B94FF0FF3035
:1006C00021460022002500F023F840F20800C2F283
:1006D000000004602846B0BD82B0002043F640010F
:1006E0000190C4F202014A6842F480424A604A68BA
:1006F00002F480420192019A0090086840F0805014
:100700000860086800F080500090009802B07047C0
:1007100010B54EF60C5CCEF2000CDCF80030C3F3E2
:10072000022E8EF00704042C28BF0424BEF103031C
:100730004FF0FF3E0EFA04F438BF0023A143994066
:100740000EFA03F39A43114300F1604200F00F03E5
:10075000090102F56442043B6344002848BF03F1E9
:100760000C02117010BD00004EF60C51CEF20001CB
:100770000A684FF6FF031A4060F30A2242F08060D5
:1007800040F0FD7008607047002804BF01207047EA
:100790002DE9F04143F60808C4F202080446D8F8EF
:1007A000F8030D4600F00700814207D988F8F85396
:1007B000D8F8F80300F00700A84276D12068810736
:1007C00017D5410705D5D8F8001041F4E051C8F815
:1007D0000010010705D5D8F8001041F46041C8F8B1
:1007E0000010D8F80010A26821F0F0011143C8F8F9
:1007F0000010C0073FD1D8F8F80300F00700854289
:1008000007D288F8F853D8F8F80300F00700A84298
:100810004BD12068410707D5D8F80010E26821F4D1
:10082000E0511143C8F80010000708D5D8F80000BF
:10083000216920F4604040EAC100C8F8000000F0DF
:100840007BF8D8F8001041F60222C1F30311C0F67C
:100850000002515C40F2000220FA01F140F208006F
:10086000C2F200000068C2F200021160FFF70CFF44
:100870000020BDE8F0816068811E022907D258F887
:10088000081C89015CBF0120BDE8F08110E001284F
:1008900007D158F8081C89035CBF0120BDE8F0812E
:1008A00006E058F8081C890702D40120BDE8F08151
:1008B000D8F8001021F003010843C8F80000FFF742
:1008C000B3FE064641F28837D8F80000616800F0B0
:1008D0000C00B0EB810F8ED0FFF7A6FE801BB84254
:1008E000F2D90320BDE8F08140F2000043F6080190
:1008F000C2F20000C4F202010068096841F6122247
:10090000C1F38221C0F60002515CC840704700006C
:1009100040F2000043F60801C2F20000C4F20201F6
:100920000068096841F61222C1F34231C0F60002A4
:10093000515CC8407047000010B543F60404C4F28F
:1009400002046168C1F3810142F20040C0F2F40088
:10095000DFE801F00203080210BD41F20020C0F2FE
:100960007A0010BD216801F03F0221682368490226
:10097000C3F3881105D4A1FB00010023FFF792FC0B
:1009800006E041F20020C0F27A004843B0FBF2F0EA
:1009900021680222C1F3014102EB4101B0FBF1F0F9
:1009A00010BD0000002804BF012070472DE9F04170
:1009B00082B00446007843F60006C007C4F202067F
:1009C00049D0B06800F00C00042809D130688003D9
:1009D00041D5606800283ED1012002B0BDE8F08119
:1009E000B06800F00C00082802D170684002EDD415
:1009F00065683068B5F5A02F05D0B5F5803F09D101
:100A000040F480300CE040F480203060306840F4E6
:100A1000803005E020F480303060306820F48020A1
:100A20003060FFF701FE002D054611D030688003CD
:100A300011D4FFF7F9FD401B6428F7D928E100BF66
:100A4000FFF7F2FD401B64284FF0030000F2E08046
:100A500030688003F4D4207880071BD5B06810F08C
:100A60000C0F09D0B06800F00C00082840F0858019
:100A70007068400200F181803068800703D5E0682B
:100A8000012840F09A803068216920F0F80040EA9F
:100A9000C10030602078000734D42078400746D465
:100AA000A5695DB3B06800F00C00082840F09C8098
:100AB000012D00F082807068E16900F480028A42B2
:100AC0007BD1216A00F03F028A4276D147F6C0719D
:100AD000626A0140B1EB821F6FD1A16A4FF6FF73CA
:100AE000C903994300F44032A1F580318A4264D1B0
:100AF000E16A00F07060B0EB016F5ED1002002B0DF
:100B0000BDE8F081606900285BD00020C4F2472076
:100B10000121C0F8801EFFF787FD0546706F800732
:100B2000BBD4FFF781FD401B0228F7D9B0E0306C41
:100B30005FEAC0080AD400200190306C40F0805079
:100B40003064306C00F080500190019847F200074B
:100B5000C4F200073868C00526D4386840F48070B5
:100B60003860FFF761FD05463868C0051CD4FFF703
:100B70005BFD401B0228F7D98AE0E068002840F2BC
:100B80000000C4F2472053D001210160FFF74CFD63
:100B9000054600BF306880073FF575AFFFF744FD9D
:100BA000401B0228F6D973E0A568306F052D51D09F
:100BB000012D56D140F0010059E0012002B0BDE8FE
:100BC000F0810020C4F247200021C0F8801EFFF70A
:100BD0002BFD0546706F80077FF55FAFFFF724FDA3
:100BE000401B0228F6D953E00027C4F24727002013
:100BF0003866FFF719FD022D05460DD130688001DA
:100C00005DD5FFF711FD401B02284FF00300F5D919
:100C100002B0BDE8F08100BF306880017FF56EAFA3
:100C2000FFF702FD401B02284FF00300F4D9EFE765
:100C300000210160FFF7F8FC054600BF306880071F
:100C40007FF528AFFFF7F0FC401B02284FF00300B0
:100C5000F4D9DDE740F004003067306F40F0010068
:100C600005E020F001003067306F20F004003067AD
:100C7000FFF7DAFC002D054641F2883713D000BF9C
:100C8000306F800712D4FFF7CFFC401BB842F7D972
:100C9000032002B0BDE8F081FFF7C6FC401BB8425C
:100CA0004FF00300B4D8306F8007F5D4B8F1000FCF
:100CB0003FF5F6AE306C20F080503064F0E604F181
:100CC0001C052FCD084340EA8210D9034FF6FF726E
:100CD0009143A1F5803140EA05600843706001202E
:100CE0003866FFF7A1FC0446306880013FF506AF87
:100CF000FFF79AFC001B02284FF00300F4D987E7A6
:100D0000411E0020B0EB116F1CBF012070474EF256
:100D10001002CEF2000251604EF62351CEF20001D5
:100D2000F0230B70072190601160704790F83C2011
:100D3000012A4FF0020243D010B5012380F83C3065
:100D400080F83D200268D2F804E0D2F808C00C68B0
:100D50002EF07003234340F6FF34C4F20004A24295
:100D600053600FDCB2F1804F1DD040F20043C4F25B
:100D700000039A4217D040F60003C4F200039A42DF
:100D800011D015E040F60043C4F200039A420AD0A5
:100D900044F20003C4F201039A4204D00023C4F2D7
:100DA00001039A4204D149682CF0800319439160F1
:100DB0000121002280F83D1080F83C20BDE8104061
:100DC00010467047002804BF0120704710B5044644
:100DD00090F83D0028B9002084F83C00204600F03F
:100DE0001FF8022084F83D002068211D00F0BAFCA5
:100DF000012084F8460084F83E0084F83F0084F81F
:100E0000400084F8410084F8420084F8430084F8EC
:100E1000440084F8450084F83D00002010BD000027
:100E2000006840F60001C4F20001884218BF704714
:100E300081B00020009043F64000C4F20200016837
:100E400041F004010160006800F004000090009887
:100E500001B0704790F83C20012A4FF002026ED09A
:100E600080B5012380F83C3080F83D20D0F800C0E8
:100E70004FF67772DCF8083023EA0202CCF808203B
:100E80000B684F2B28DC1F2B44DD202B45D0302B4B
:100E900043D0402B40F0AC80D1F804E0C968DCF8C6
:100EA0002030DCF8202022F00102CCF82020DCF8F1
:100EB000182022F0F00242EA011123F00A0242EA6D
:100EC0000E02CCF81810CCF82020DCF8081041F005
:100ED000470121F0300127E06F2B32DDB3F5005FD1
:100EE00073D0B3F5805F21D0702B40F08180D1E9C1
:100EF00001E3C968DCF8082043EA0E0322F47F42CC
:100F000043EA01211143CCF80810DCF8081041F045
:100F1000770109E00BB1102B6AD1DCF8081021F041
:100F20007001194341F00701CCF80810002201219B
:100F300080F83D10002180F83C10BDE8804010464C
:100F40007047502B21D0602B52D1D1F804E0C968F2
:100F5000DCF82030DCF8202022F01002CCF8202031
:100F6000DCF8182022F4704242EA013123F0A0029A
:100F700042EA0E12CCF81810CCF82020DCF8081049
:100F800041F0670121F01001CEE7D1F804E0C96813
:100F9000DCF82030DCF8202022F00102CCF8202000
:100FA000DCF8182022F0F00242EA011123F00A02D4
:100FB00042EA0E02CCF81810CCF82020DCF8081019
:100FC00041F0570121F02001AEE7D1E901E3C96802
:100FD000DCF8082043EA0E0322F47F4243EA0121B1
:100FE0001143CCF80810DCF8081041F480419BE76D
:100FF00001229CE790F83C30012B04BF022070478F
:101000004FEAB2020123032A80F83C3000F2E88064
:101010002DE9F041DFE802F002A33A7403680025ED
:101020001C6A1A6AC4F2010522F001021A621A4609
:10103000D3F804C052F818EF8E6824F00204AB42D3
:1010400044EA060405D1CE6824F00C0426F0040618
:1010500034430E68AB4206D1D1E905582CF44077F1
:101060002F4347EA080C2EF073073743C3F804C038
:101070009F614F6809695F631C629F6947F00807B9
:101080009F619F6927F004079F61A3E00368002523
:101090001C6A1A6AC4F2010522F480721A621A46A6
:1010A000D3F804C052F81CEF8E6824F40074AB42ED
:1010B00044EA062407D1CE6840F2FF47360224F402
:1010C0004064BE4334430E68AB4206D1D1E90557B4
:1010D0002CF4405C3D434CEA051C2EF0730737436B
:1010E000C3F804C0DF614F680969DF631C62DF6910
:1010F00047F00807DF61DF6927F00407DF6169E077
:1011000003680027D3F820C01A6AC4F2010722F44A
:1011100080521A621A465C6852F81C5FD1F800E0EF
:101120008E68BB4204D14F6924F4804444EA87149A
:101130002CF4005747EA063725F4E64646EA0E2621
:101140005C60DE614E6809691E641F62DF6947F4F6
:101150000067DF61DF6927F48067DF6139E00368DA
:1011600000251C6A1A6AC4F2010522F010021A62F4
:101170001A46D3F804C052F818EF8E6824F0200401
:10118000AB4244EA061407D1CE686FF0400724F062
:10119000C00407EA061634430E68AB4206D1D1E913
:1011A00005572CF4406C3D434CEA850C2EF4E64781
:1011B00047EA0627C3F804C09F614F6809699F6327
:1011C0001C629F6947F400679F619F6927F48067ED
:1011D0009F6109021368194300231160BDE8F041C3
:1011E000002180F83C10184670470000002804BF1A
:1011F0000120704710B5044690F83D0028B9002042
:1012000084F83C00204600F01FF8022084F83D00DE
:101210002068211D00F0A6FA012084F8460084F819
:101220003E0084F83F0084F8400084F8410084F8D0
:10123000420084F8430084F8440084F8450084F8B0
:101240003D00002010BD0000704700004122082929
:1012500008BF4022042908BF3F22002908BF3E22C0
:10126000825C012A1CBF01207047022241B108297B
:1012700009D0042914BF80F8412080F83F2004E001
:1012800080F83E2001E080F84020006801F01F0156
:101290000122036A8A4023EA02010162036A4421AF
:1012A000C4F201011A43A1F144039842026203D13E
:1012B0000A6842F400420A6040F6FF31C4F20001BD
:1012C00088420FDCB0F1804F1DD040F20041C4F2E3
:1012D0000001884217D040F60001C4F200018842A4
:1012E00011D017E040F60041C4F2000188420AD054
:1012F00044F20001C4F20101884204D00021C4F28A
:101300000101884206D1816801F00701062904BF66
:1013100000207047016841F0010101600020704722
:10132000002804BF0120704710B5044690F8410022
:1013300028B9002084F84000204600F021F824203D
:1013400084F841002068C16821F40051C160204642
:1013500000F07EFA2068016921F490410161416941
:1013600021F02A014161C16841F40051C1600020AF
:101370002021606484F8411084F84210606310BD3D
:1013800080B586B044F200410068C4F2000100223A
:1013900088420592CDE903220292019201D006B063
:1013A00080BD43F630000092C4F20200036943F4AA
:1013B00000330361036903F400330093009B009240
:1013C000036843F001030360006800F0010000902F
:1013D00000980C2001900220CDE902020320049025
:1013E0000720059001F5DE3001A9FFF753F806B09C
:1013F00080BD00002DE9F04381B0044690F8410023
:10140000202809D1884600294FF0010018BF002A82
:1014100006D101B0BDE8F083022001B0BDE8F08341
:101420000020606421201D4684F841001646FFF725
:10143000FBF8A684E684A1680646B1F5805F02D178
:10144000206900284DD0C1464FF00008E08C40B321
:101450006F1C0BE0B9F1000F1AD019F8010B2168CD
:101460004860E08C0138E084E08CD0B120680068EE
:101470000006EFD4002FF9D0FFF7D6F801464FF061
:10148000030045B3891BA94225D82068C068EDE751
:1014900038F8020B21686FF35F2048604FF00009B5
:1014A000DFE720680068400614D46F1C04E000BF2A
:1014B0002068006840060DD4002FF9D0FFF7B4F87B
:1014C00001464FF0030035B1891BA94203D82068BB
:1014D000C068EDE70020202184F8411001B0BDE88C
:1014E000F0834FF00009B1E7FEE7000081B0002073
:1014F00043F630010090C4F202010A6842F004028F
:101500000A600A6802F004020092009A00900A68D9
:1015100042F080020A600A6802F080020092009A9B
:1015200000900A6842F001020A600A6802F00102B3
:101530000092009A0090086840F00800086008686F
:1015400000F008000090009801B07047B0B594B06A
:1015500040F6000540F27000C4F200050021C2F21E
:101560000000472240F2F3130D91CDE90B11CDE9B4
:101570000911CDE90711CDE90511CDE90311CDE937
:101580000111C0E90052C0E9021301618161FFF756
:1015900019FC002818BFFEF765FF4FF480500A9031
:1015A00040F27000C2F200000AA9FFF753FC0028C5
:1015B00018BFFEF757FF40F27000C2F20000FFF7BD
:1015C00015FE002818BFFEF74DFF40F27000002402
:1015D000C2F2000008A9CDE90844FFF7A7FB0028E4
:1015E00018BFFEF73FFF6020CDE90104059440F2EB
:1015F00070040220C2F20004039001A920460022D8
:10160000FFF7F8FC002818BFFEF72CFF2168002028
:10161000A9421390CDE9110010900F9001D014B0A1
:10162000B0BD43F630010E90C4F202010A6842F0E8
:1016300008020A60096801F008010E910E994FF442
:1016400080510F910221CDE91010CDE9120105F56D
:1016500001300FA9FEF71EFF14B0B0BD80B540F2F7
:10166000B80044F20041C2F20000C4F200010023BD
:101670004FF00C0C4FF4E13280E80E00C0E9033368
:10168000C0E905C3C361FFF74BFE002808BF80BD5A
:10169000BDE88040FEF7E6BEFEE70000FEE7000082
:1016A0007047000070470000FEF7C4BF70B592B0ED
:1016B00006AC20463021FEF76DFE002543F64000C3
:1016C0000595CDE90355CDE901550095C4F2020019
:1016D0000168022641F080510160006800F08050EE
:1016E0000090009847F200000095C4F200000168E5
:1016F00041F4404101600068482100F440400090FE
:101700000098012006904FF4803007904FF480003D
:101710000D9004200E90119020460C96CDE90F16E6
:10172000FFF740F908B172B6FEE70F20CDE90106D8
:101730004FF48050CDE9040501A802210395FFF77D
:1017400023F810B172B600BFFEE712B070BD000002
:101750004EF68850CEF20000016841F4700101603D
:101760007047000010B540F2FF7E0368C4F2000E1F
:1017700040F2000C7045C4F2010C0ADD40F6000294
:10178000C4F2000290420DD060450BD040F60042FA
:1017900004E0B0F1804F05D040F20042C4F20002F4
:1017A000904203D14A6823F0700313434FF6FF724F
:1017B000C4F20002904209DC704512DCB0F1804FA7
:1017C00026D040F20042C4F200021FE044F2FF3291
:1017D000C4F2010290420FDC604519D044F20002CD
:1017E00012E040F60002C4F20002904210D040F62F
:1017F0000042C4F2000209E044F60002C4F2010211
:10180000904205D044F20042C4F20102904203D15A
:10181000CA6823F44073134323F080024B69D1F864
:1018200000E08C681A4360450260C462C0F828E09A
:1018300002D10969CCF83010012141610169C90761
:1018400008BF10BD016921F00101016110BD000058
:10185000B0B50446006804F108030ECB05691943CE
:1018600025F440552A4302616269E3691143C26865
:10187000194349F20C639A431143C1604169A2695B
:1018800021F4407141F20043114340F48062C4F2FC
:1018900001039A42416102D1FFF73AF801E0FFF7F4
:1018A00023F8E1694FF69C7563681922C0F6FF754D
:1018B000B1F5004FA0FB02011CD15A00DB0FFEF76F
:1018C000F1FC48F21F51C5F2EB11A0FB01235A09AC
:1018D00005F1805302FB0300322303EBC000A0FBA1
:1018E00001014FF4F87000EA111000EB0210C1F38F
:1018F000421118E09A009B0FFEF7D4FC48F21F51EA
:10190000C5F2EB11A0FB01235A0902FB05003223AB
:1019100003EB0010A0FB0101F02000EA511000EBE6
:101920000210C1F34311084421688860B0BD000073
:10193000FEE7000086B0FEF78BFEFFF7B7FEFFF76D
:10194000D5FDFFF78BFEFFF701FE40F27004C2F2F7
:10195000000420460021FFF779FC1EA04168D0E971
:1019600002B6078A90F8128040F2F519009100BF84
:10197000184801A9019000981222CDE9020B40F20B
:10198000B800C2F2000064230496ADF814708DF81C
:101990001680FFF72FFD4FF47A70FEF767FD4FF0CA
:1019A000010A00BF2068C0F834A00120FEF75EFDE8
:1019B0000AF1010ACA45F5D140F2F31520684563E2
:1019C0000120FEF753FD013D681CF7D1C820FEF74A
:1019D0004DFDCDE748656C6C6F2053544D33324656
:1019E000343131210D0A0000F1EE100A4FF6FF717B
:1019F000C0F2C03120EA010040F04070E1EE100A70
:101A00007047000000000000000001020304060708
:101A1000080900000000010203040000401A000849
:101A20000000002010000000FC010008501A00080F
:101A300010000020F80600001C0200080000000052
:101A40000024F4000100000010000000000000006D
:040000050800019955
:00000001FF
